:100000009DEF06F00000000000EF00F0000000008F
:0A0010000000000000000000F3D71C
:06001C00000000001200CC
:10002200120E0C6EDA0E0D6E0D2EFED70C2EFCD7B4
:0400320000001200B8
:0C003600290E0D6E0D2EFED700001200EA
:1000420035BE02D0819601D0818635BC02D0819422
:1000520001D0818435BA02D0819201D0818235B833
:1000620002D0819C01D0818C22B002D0818801D043
:100072008198818AD2DF819A35B602D0819601D0E9
:10008200818635B402D0819401D0818435B202D008
:10009200819201D0818235B002D0819C01D0818CC5
:1000A20022B002D0818801D08198818AB6DF819AFC
:0C00B20022A002D0B5DF01D0BDDF12009B
:1000BE000B840BAE6AEF00F0010E036E026A016A4A
:0A00CE00006A0A360232FF0E12002B
:0E00D800026A016A006A086A036A000E1200DA
:0C00E600229034C035F0AADF2280120006
:0800F2000AAE029E000E12008E
:1000FA000C6A0E6A0250D8A496EF00F001C002F012
:10010A0000C001F0006A0E860250D8A496EF00F0F3
:10011A0001C002F0016A0E960E880250D8B4A8EF08
:10012A0000F00E50035ED8A4D8A0ADEF00F0D8902E
:10013A0002BEB2EF00F0003601360236032E9DEF02
:10014A0000F0ADEF00F0010E0C6EC1DFB5EF00F06C
:10015A00020E0C6EAFDFB5EF00F0040E0C6EC4DFBA
:02016A00120081
:10016C00939A93989390939293949396819A81985F
:10017C00819681948192819C4EDF4DDF4CDF818290
:10018C00818C818A45DF819A46DF818A41DF819AA1
:10019C0042DF818A3DDF819A3EDF819C818A38DF94
:1001AC00819A39DF818A34DF819A81928186818AB2
:1001BC002FDF819A30DF8196818C818A29DF819AA9
:1001CC00819C818A25DF819A26DF818A21DF819AB1
:1001DC00818C818A1DDF819A1EDF819C818A18DFC8
:1001EC00819A818681848182818C818A11DF819AB6
:0601FC0012DF2280120058
:100202000FD0800E2F6E19D0C00E2F6E16D0940E06
:100212002F6E13D0D40E2F6E10D0800E2F6E0DD0F5
:100222002F50010AEEE02F50020AEEE02F50030A8F
:10023200EEE02F50040AEEE0F0D73004006E2F50AB
:10024200002600C02FF000C035F0FADE2290336A9B
:1002520033503124E96E000E3220EA6EEE520BE08A
:1002620033503124E96E000E3220EA6EEECF34F0C4
:0A02720039DF332AEDD72280120095
:10027C00086A096A100E0C6E0134083609360450EF
:10028C00085E0550D8A0053C095ED8B007D00450D4
:10029C0008260550D8B0053C0926D8900036013602
:0602AC000C2EEAD712003F
:1002B20064D0410EC26EC280100E0D6E0D2EFED79E
:1002C2000000C282C2A201D0FDD7100E0D6E0D2E0B
:1002D200FED70000C4CF03F0026AC3500226000E0C
:1002E200032257D0450EC26EC280100E0D6E0D2E27
:1002F200FED70000C282C2A201D0FDD7100E0D6E41
:100302000D2EFED70000C4CF03F0026AC3500226AE
:10031200000E03223ED0490EC26EC280100E0D6E38
:100322000D2EFED70000C282C2A201D0FDD7100E50
:100332000D6E0D2EFED70000C4CF03F0026AC3502B
:100342000226000E032225D0510EC26EC280100E6C
:100352000D6E0D2EFED70000C282C2A201D0FDD7C3
:10036200100E0D6E0D2EFED70000C4CF03F0026AF0
:10037200C3500226000E03220CD02F50000A99E02F
:100382002F50010AAFE02F50020AC5E02F50040A95
:0C039200DBE002C000F003C001F012002C
:10039E000B800BAEDBEF01F0026A0AAEFF0E026EAF
:0C03AE00016E006E0A360232FF0E1200D3
:1003BA000FD0800E2F6E19D0C00E2F6E16D0940E4D
:1003CA002F6E13D0D40E2F6E10D0800E2F6E0DD03C
:1003DA002F50010AEEE02F50020AEEE02F50030AD6
:1003EA00EEE02F50040AEEE0F0D73004006E2F50F2
:1003FA00002600C02FF0228000C035F01DDE2290BA
:0A040A0031C035F019DE2280120027
:080414000B6A0B86FF0E1200BB
:10041C000B820BAE18EF02F00368026801680068EB
:08042C000A360232FF0E120035
:10043400100E046E270E056E29C000F02AC001F0CC
:100444001BDF00C02BF0100E046E270E056E29C0B2
:1004540000F02AC001F010DF08C000F009C001F06C
:10046400E80E046E030E056E07DF00C02CF0E80EE4
:10047400046E030E056E29C000F02AC001F0FCDEF4
:1004840008C000F009C001F0640E046E000E056E91
:10049400F3DE00C02DF0640E046E000E056E29C05C
:1004A40000F02AC001F0E8DE08C000F009C001F045
:1004B4000A0E046E000E056EDFDE00C02EF0010E83
:1004C4002F6E010E306E560E316E75DF3D0E346E9A
:1004D40008DE300E2B24346E04DE300E2C24346EF1
:1004E40000DE2E0E346EFDDD300E2D24346EF9DD6B
:0A04F400300E2E24346EF5DD1200E8
:1004FE00E80E046E030E056E29C000F02AC001F04E
:10050E00B6DE00C02BF0E80E046E030E056E29C099
:10051E0000F02AC001F0ABDE08C000F009C001F007
:10052E00640E046E000E056EA2DE00C02CF0640E8A
:10053E00046E000E056E29C000F02AC001F097DE91
:10054E0008C000F009C001F00A0E046E000E056E20
:10055E008EDE00C02DF0010E2F6E090E306E540E81
:10056E00316E24DF3D0E346EB7DD300E2B24346E2B
:10057E00B3DD300E2C24346EAFDD300E2D24346EF0
:04058E00ABDD1200CF
:10059200E80E046E030E056E29C000F02AC001F0B9
:1005A2006CDE00C02BF0E80E046E030E056E29C04F
:1005B20000F02AC001F061DE08C000F009C001F0BD
:1005C200640E046E000E056E58DE00C02CF0640E40
:1005D200046E000E056E29C000F02AC001F04DDE47
:1005E20008C000F009C001F00A0E046E000E056E8C
:1005F20044DE00C02DF0020E2F6E080E306E570E34
:10060200316EDADE3D0E346E6DDD300E2B24346E2B
:1006120069DD300E2C24346E65DD2E0E346E62DD03
:0A062200300E2D24346E5EDD120050
:10062C00E80E046E030E056E29C000F02AC001F01E
:10063C001FDE00C02BF0E80E046E030E056E29C001
:10064C0000F02AC001F014DE08C000F009C001F06F
:10065C00640E046E000E056E0BDE00C02CF0640EF2
:10066C00046E000E056E29C000F02AC001F000DEF9
:10067C0008C000F009C001F00A0E046E000E056EF1
:10068C00F7DD00C02DF0020E2F6E010E306E410E04
:10069C00316E8DDE3D0E346E20DD300E2B24346E2B
:1006AC001CDD2E0E346E19DD300E2C24346E15DD4F
:0A06BC00300E2D24346E11DD120003
:0E06C6000F0E926E010E936E806A816A120012
:0E06D400600EC16E410EC26E880EC06E120026
:1006E20044DD010E356EACDC0C0E356EA9DC010E5C
:1006F2002F6E030E306E150E316E000E326E80DDDF
:020702001200E3
:100704000B6A0A6A096A00500402F4CF09F0F3CFB5
:1007140008F001500502F4CF0BF0F3CF0AF00050BB
:100724000502F3500926F4500A22E86A0B2201500C
:100734000402F3500926F4500A22E86A0B2208C086
:1007440000F009C001F00AC002F00BC003F012006F
:100754000B6A0C6A0A6A0350D8B4F4EF03F0028EF1
:100764008E0E035E03BEBCEF03F0D8B4BCEF03F0FF
:10077400F8EF03F0036C080E035CD8A0D3EF03F08A
:10078400036E013602C001F0026A080E035CD8A0B1
:10079400D3EF03F00136016A0350D8A4D890DDEFFB
:1007A40003F00350D8B4DDEF03F0D89002320132E5
:1007B400032ED7EF03F00BBC01A0EAEF03F0D8A09F
:1007C400EAEF03F0012AD8B4022A02BE07EF04F0CC
:1007D4000AAE0CEF04F0021E011E012AD8B4022A4C
:1007E4000CEF04F0026A016A0CEF04F00B800BAE0C
:1007F40010EF04F0026A0AAE10EF04F0FF0E026E6E
:10080400016E0A36023210EF04F0010E0C6EC5DDE3
:1008140012EF04F0000E0C6E12EF04F0FF0E0C6EDB
:0A0824000150006E0250016E120038
:10082E00086A096A000E076203649CEF04F0025026
:10083E0006180A6E075003267E0ED8A02DEF04F080
:10084E00035ED8B0A1EF04F031EF04F0035ED8A040
:10085E00A5EF04F0028E068E02C00EF001C00BF062
:10086E0000C00DF000500402F4CF0CF00150050250
:10087E00F4CF00F0F3CF08F00402F3500C26F4503E
:10088E000822000E00220D500502F3500C26F450E3
:10089E000822000E002202500402F3500826F450E3
:1008AE00002202500502016A000E0122F3500026BA
:1008BE00F45001220D500602F3500826F450002287
:1008CE00026A000E012202220B500602F35000268D
:1008DE00F4500122000E02220E500602F3500126A1
:1008EE00F450022202BE84EF04F0083600360136C0
:1008FE0002360306D8B4A5EF04F097EF04F0D880C3
:10090E00800E08640030000E002201220222D8A0C0
:10091E0097EF04F0023201320032034AA1EF04F0E5
:10092E000AAE029E000EA8EF04F0010E6CEC00F071
:10093E00A8EF04F0020E6BDDA8EF04F0040E5FECDE
:04094E0000F01200A3
:100952000050086E0150006E016A026A036A0B6A57
:100962000C6A960E036E0A6A00C001F008C000F01D
:0A097200086A026A7DEC00F0120032
:10097C00010E2F6E0F0E306E560E316E18DD460EB8
:10098C00346E73EC00F0050E2A5C02E1DC0E295C7F
:10099C000CE2020E2F6E0F0E306E440E316E07DD20
:1009AC004E0E346E73EC00F01DD02A500B0802E191
:1009BC002950B8080CE2020E2F6E0F0E306E550E39
:1009CC00316EF5DC500E346E73EC00F00BD0020E71
:1009DC002F6E0F0E306E4F0E316EE9DC4B0E346EF7
:0609EC0073EC00F01200A4
:1009F2000450000A12E10550000A0FE10650000AF5
:100A02000CE10750000A09E1FF0E006EFF0E016EB5
:100A12007F0E026EFF0E036EA6D0086A096A0750A7
:100A2200D8B4A4EF05F00350D8B4A8EF05F00250F3
:100A320006180A6E028E068E0E6A02C008F001C007
:100A42000CF000C00DF004500D5E0550D8A0053C1E
:100A52000C5E0650D8A0063C085E086A0C6A0D6A55
:100A6200D8A03BEF05F0D8900232013200320832B2
:100A7200010E0E6E0750035ED8A048EF05F07E0E01
:100A82000E240326D8B0ADEF05F04EEF05F07E0E32
:100A92000E240326D8A0B1EF05F0180E0B6E0D360A
:100AA2000C3608360036013602360E360450005E29
:100AB2000550D8A0053C015E0650D8A0063C025E57
:100AC20006340E120EA069EF05F00D8074EF05F0EA
:100AD200045000260550D8B0053C01260650D8B077
:100AE200062802260D900B2E50EF05F09AEF05F026
:100AF200D8900036013602360E360450005E05509C
:100B0200D8A0053C015E0650D8A0063C025E063421
:100B12000E10010B0D26D8B00C2AD8B4082AD8A47E
:100B22009AEF05F008320C320D32032AD8B4ADEF39
:100B320005F00AAE089E0850026E0C50016E0D5070
:100B4200006EB4EF05F0010E64DCB4EF05F0020EA6
:100B52006CEC00F0B4EF05F0040E5FDCB4EF05F0CE
:080B6200080E5FEC00F0120028
:100B6A002B6A2C6A2A6A0C0E2A5C0AE229C02FF028
:100B7A0059EC01F000502B2601502C222A2AF3D7D7
:100B8A000C0E046E000E056E2BC000F02CC001F096
:060B9A003EEC01F0120028
:100BA00092DD98DD9EDD0D0E0B6EAF0E0C6EB60E57
:100BB0000D6E0D2EFED70C2EFCD70B2EFAD7000093
:0A0BC000010E356E21EC00F012006A
:100BCA000900F5CFE6FF0006FBE10106F9E1120094
:100BDA000B0E0B6E260E0C6E5D0E0D6E0D2EFED7D5
:100BEA000C2EFCD70B2EFAD700000000817E296A52
:100BFA00B7DF00C023F001C024F0A6DEE20E046EC7
:100C0A00690E056E0F0E066E840E076E0BDE9DDDF5
:100C1A0000C023F001C024F000C029F001C02AF06E
:100C2A0004DC040E296E9CDF8FDE380E046E670E1C
:100C3A00056E1C0E066E810E076EF4DD86DD00C0A1
:100C4A0029F001C02AF095DE010E296E89DF00C065
:100C5A0025F001C026F0020E015C02E1000E005CE4
:100C6A0005E2000E256E020E266E04D0000E255EE9
:100C7A00020E265A25C000F026C001F065DE380EA5
:100C8A00046E670E056E1C0E066E810E076ECADDB7
:100C9A005CDD00C025F001C026F056DEA40E046E0D
:100CAA00700E056E3D0E066E7C0E076E9DDE4DDDE6
:100CBA0000C025F001C026F000C029F001C02AF0CA
:100CCA00B0DCE80E046E030E056E23C000F024C0EB
:100CDA0001F03EEC01F000C027F001C028F00A0E36
:100CEA00046E000E056E25C000F026C001F03EEC31
:100CFA0001F027C004F028C005F0FFDC00C029F08D
:100D0A0001C02AF041DC020E296E2ADF1DDE380EF0
:100D1A00046E670E056E1C0E066E810E076E82DD6E
:100D2A0014DD00C029F001C02AF07FEC02F01200A5
:0C0D3A00AAEC06F030DF4CDFFED7FFD73C
:100D540010EE15F00D0E006E010E016E460EF66ECD
:0E0D64000D0EF76E000EF86EE5EC05F01200B5
:0D0D4600494E495449414C495A494E470015
:020000040030CA
:0D000100C20F1EFF8081FF03C003E003401B
:00000001FF
